:060000000A128A11FC2F18
:100F7200831203131F14831603131F178312031301
:100F82009F171F139F121F129F11831603139F1780
:100F92009F111F119F101F10081083121F15D82FA9
:100FA200C730F000D42FF00BD32FD72FD82F8312B6
:100FB20003131F19DD2FDE2FD12F1E08F200831617
:100FC20003131E08F1007208803AFF0082307F028C
:100FD200031DED2F01307102031CF02FF12FF52FAD
:100FE200831203130814CE2F831203130810CE2F7B
:0E0FF2000A128A11002883010A128A11B92FEF
:02400E00793FF8
:00000001FF
